:020000041000EA
:1000000000B5324B212058609868022188439860DF
:10001000D860186158612E4B002199600221596106
:100020000121F02299502B49196001219960352056
:1000300000F044F80222904214D00621196600F024
:1000400034F8196E01211966002018661A6600F04E
:100050002CF8196E196E196E052000F02FF8012189
:100060000842F9D1002199601B49196000215960AB
:100070001A491B48016001219960EB211966A021F2
:10008000196600F012F800219960164914480160C1
:100090000121996001BC002800D000471248134993
:1000A000086003C880F30888084703B5996A0420EC
:1000B0000142FBD001200142F8D103BD02B5186610
:1000C0001866FFF7F2FF186E186E02BD00000240BE
:1000D000000000180000070000035F00212200005C
:1000E000F4000018222000A00001001008ED00E03C
:1000F00000000000000000000000000074B24E7A12
:1001000000200420F7010010C3010010C5010010F9
:10011000C1010010C1010010C1010010C101001097
:10012000C1010010C1010010C1010010C701001081
:10013000C1010010C1010010C9010010CB01001065
:10014000CD010010CD010010CD010010CD01001037
:10015000CD010010CD010010CD010010CD01001027
:10016000CD010010CD010010CD010010CD01001017
:10017000CD010010CD010010CD010010CD01001007
:10018000CD010010CD010010CD010010CD010010F7
:10019000CD010010CD010010CD010010CD010010E7
:1001A000CD010010CD010010CD010010CD010010D7
:1001B000CD010010CD010010CD010010CD010010C7
:1001C00000BE00BE00BE00BE00BE00BE00F04BF888
:1001D000103800BEF2EB887180460E109C460E105F
:1001E0003402001090A31AE700202149086006C8D5
:1001F00081F3088810471F48006800282FD10DA4FC
:100200000ECC002902D000F012F8F9E71A491B4A77
:10021000002000E001C19142FCD1194988471949E9
:1002200088471949884700BEFDE701C901C29A42C3
:10023000FBD370479C460E10C0000020E81C002035
:10024000C4620E100000042000000420C4620E10DE
:1002500000100420001004200000000070470B482C
:1002600064F0AAFA0047EFF30580C0B270470000BF
:1002700008ED00E0000000D0E81C0020A0A2002053
:10028000692B0610B1F40510912C0610575600008A
:1002900006005250ABB36053F81F0B1006005250CB
:1002A000861C030208200B10060052505422A29D07
:1002B0001C200B1005005250DE65F468C4620E105D
:1002C000F8B5C04610B5064C2378002B07D1054B76
:1002D000002B02D0044800E000BF0123237010BDB2
:1002E000402000200000000098150710044B10B5B6
:1002F000002B03D00349044800E000BF10BDC046F6
:100300000000000044200020981507107047C046E8
:10031000F0B5D6464F46464604000D00C0B58142B2
:1003200019D04B680F689A46DE1B036899464A4607
:1003300083689B1A98469E4212D84068821A964259
:1003400030D8BA453ED032003900484671F014F931
:1003500023689D196560E0BCBA46B146A846F0BD69
:10036000002E3BD01F4B9E423AD8300066F03CFB3B
:100370002368050099464A46A3689B1A9846BA45E1
:1003800004D032003900280066F028FB4B46002BD1
:1003900003D04146484666F033FB2560AD19A560A1
:1003A0006560D8E7002A0AD03900484671F0E4F8C1
:1003B000236860689946C21A6B682F689A46B91814
:1003C000514503D135004D446560C4E753465A1A80
:1003D00071F0D2F823689D196560BCE70025CEE76F
:1003E00066F07EFFFCFFFF7F0368F0B54F46464690
:1003F0009946D6469046C0B5561A4A4683680400C8
:100400000D009F1ABE4225D9284B9E424AD8002E85
:1004100045D0300066F0E8FA2368824699464A469D
:10042000A3689F1AA84504D032002900504666F000
:10043000D5FA4B46002B03D03900484666F0E0FA67
:100440005346564423606660A660E0BCBA46B14697
:10045000A846F0BD4768BA1A96420BD8884504D022
:100460003200484671F088F867684E44BE42ECD0CE
:100470006660EAE78E18B14203D0484671F07CF816
:100480006768434600259B1BB04505D01A00310024
:1004900038001D0071F070F87F196760D5E7002300
:1004A0009A46BFE7024866F05BFFC046FCFFFF7F4D
:1004B0009815071070B505000E0082B000291DD0F8
:1004C000541A01940F2C0BD80068012C1BD10B7807
:1004D0000370019C286800236C60035502B070BD56
:1004E000002201A967F05AF8019B2860AB60220046
:1004F000310066F073FA019C2868ECE7002A05D108
:1005000000240068E7E7002CE5D0F0E7014866F03A
:10051000F7FEC046CC1507100368F0B54F464646B7
:100520009946D6469046C0B5561A4A468368040096
:100530000D009F1ABE4225D9284B9E424AD8002E54
:1005400045D0300066F050FA2368824699464A4604
:10055000A3689F1AA84504D032002900504666F0CF
:100560003DFA4B46002B03D03900484666F048FA66
:100570005346564423606660A660E0BCBA46B14666
:10058000A846F0BD4768BA1A96420BD8884504D0F1
:100590003200484670F0F0FF67684E44BE42ECD02F
:1005A0006660EAE78E18B14203D0484670F0E4FF77
:1005B0006768434600259B1BB04505D01A003100F3
:1005C00038001D0070F0D8FF7F196760D5E7002361
:1005D0009A46BFE7024866F0C3FEC046FCFFFF7FB5
:1005E00098150710F0B50600083604000D0083B01A
:1005F0000660002924D0080070F08AF807000190F6
:100600000F280CD8012807D12B78237200236060B3
:100610003354200003B0F0BD0028F7D008E00022DA
:10062000200001A966F0BAFF0600019B2060A360CC
:1006300030003A00290066F0D1F901982668E5E714
:10064000014866F05DFEC046CC150710F0B5C64601
:100650003F2000B51E00CB17184040188011984667
:100660000C00150084B0431C03285ED0042B36DC3C
:10067000022B53D0032B4AD1802180202E4A60F0D8
:1006800099F9070043463F229B0EE41822400724B5
:10069000D21AD317580F111821401C40A418091A58
:1006A000E41009012201002D2DDB1023672D22DC2F
:1006B000002E24DB1020672E1ADC00240090039407
:1006C0003800029601955FF095FD002F03D00C21B4
:1006D000380066F095F904B080BCB846F0BD052B33
:1006E00015D180218020154A60F064F90700C9E720
:1006F0006830801BE1E768335B1B002EDADA921B5F
:1007000010200026D9E7491B10230025D0E78021BF
:1007100080200B4A60F04EF90700B3E7802180206B
:10072000084A60F047F90700ACE780218020064ABC
:1007300060F040F90700A5E78C3F0C108C3F0B10D0
:100740008C3F0D108CBF0C108CBF0B10F0B5D64633
:100750004F46464692460A1AD2109500AD182B0114
:10076000ED182B02ED182B04EB185B009B1804000E
:100770008946C0B59A10032B5ADD53461E685D6842
:1007800053009B185B019846804411E02700E36901
:1007900018379D421ED02700636B30379D4224D00E
:1007A0002700E36C48379D422AD06034A04532D000
:1007B0006368AB42EAD1002D06D02A0031002068E0
:1007C00070F05AFE0028E1D12000E0BCBA46B146E4
:1007D000A846F0BD002D06D02A003100A06970F0B7
:1007E0004BFE0028D7D13C00EEE7002DFBD02A00BD
:1007F0003100206B70F040FE0028D1D13C00E3E7CF
:10080000002DF0D02A003100A06C70F035FE0028D9
:10081000CBD13C00D8E74B46191BC9108A005218AF
:100820001301D2181302D2181304D3185B005B18FB
:10083000022B1DD0032B13D0012B01D04C46C3E754
:1008400053461F685D6863689D42F7D1002DBBD099
:100850002A003900206870F00FFE0028EED1B3E7BF
:1008600053461F685D686368AB4213D0183402E0DA
:1008700053461F685D6863689D4201D01834E2E703
:10088000002DA1D02A003900206870F0F5FD002865
:100890009AD0F3E7002D97D02A003900206870F035
:1008A000EBFD002800D18FE7E0E7C046F0B5C64673
:1008B00000B5036888B004AE04000D009846476890
:1008C0000296002B32D001970F2F20D8012F33D161
:1008D0006A461B781374330000220397DA55606868
:1008E0002A0043001818782340001B1A59080123D6
:1008F00002A85B425FF0FCFF0298B04203D004996B
:10090000013166F07DF808B080BCB846F0BD002229
:1009100001A902A866F042FE019B029004933A00EE
:10092000414666F05BF8019F029BD5E73300002F3C
:10093000D2D0044866F0E4FC3300002FCCD0300065
:10094000EDE7C046CC150710F0B5C64600B5704BB4
:1009500094B01C8800210F230022060000205FF0C5
:10096000D3F85FF0E7FA200010AC5FF0D5F8220072
:10097000684B0E9403CB03C21B78412113700923EB
:100980000F93002302AA521813700EA80122013BF4
:100990003A395FF0ADFF0E98A04204D0109B591C6D
:1009A000019366F02DF85C4B02A819685FF0BAFF5E
:1009B000039A5A4B01929A4200D1A5E0584B01226A
:1009C000190002A8984666F09FFF07000E9403687E
:1009D00008370500BB4200D18AE00E93836810936C
:1009E0006B680EA80F93002301226B602B725E21AF
:1009F0002F60013B5FF07CFF0E98A04204D0109B5B
:100A0000591C019365F0FCFF029804AB984203D097
:100A10000499013165F0F4FF424B0E941A683E21AF
:100A200010929B8802AAA38006230F9300235218DA
:100A300013700EA80922013B37395FF059FF0E9859
:100A4000A04204D0109B591C019365F0D9FF364B8E
:100A500008A819685FF066FF099A304B01929A4224
:100A600052D00122414608A866F04EFF07000E94BE
:100A7000036808370500BB4240D00E93836810938B
:100A80006B680EA80F93002309226B602B725E2106
:100A90002F60013B5FF02CFF0E98A04203D010990D
:100AA000013165F0ADFF08980AAB984203D00A996E
:100AB000013165F0A5FF74680122E4002300611C88
:100AC000012008335FF016FBE31DA11C0222022067
:100AD0005FF010FB0322A31DE11C03205FF00AFB63
:100AE0000420211D5FF0C6F814B080BCB846F0BDEC
:100AF00010223900200065F071FF71E710223900E3
:100B0000200065F06BFFBBE7084866F029FCC04693
:100B100084A20020F815071084120020FFFFFF3F79
:100B20001C16071038170710A4130020041607100E
:100B3000F0B5D6464F464646C0B5414B90B01C88EE
:100B400000220F2300200F0000215EF0DDFF5FF088
:100B5000F1F920005EF0E0FF78213A4A78205FF05A
:100B600029FF00230393029301937833002200218D
:100B7000009304005FF03EFB002C03D00C2120000A
:100B800065F03EFF1421304A76205FF013FF00230A
:100B900003930A330293093B01931333009300221A
:100BA0000021623304005FF025FB002C03D00C21F0
:100BB000200065F025FF0F230F220F210F205EF08C
:100BC000A3FF06AC214B04941A6804AD06929A88E0
:100BD0002100A2809B790722A37107239A466B60AC
:100BE00000239946EB730CAB180098460A9365F006
:100BF000F5FE53460B934B460AAE28213800F3739B
:100C000063F034FE132914D9012330005422272124
:100C10005B425FF06DFE0A98404503D0B168013138
:100C200065F0EEFE2868A04203D0A968013165F0A6
:100C3000E7FE10B0E0BCBA46B146A846F0BDC046DB
:100C400084A20020FCD10D108CBF0D1020160710BF
:100C5000F0B5C64600B53D4B8EB01C8800220F2370
:100C600000200E0000215EF04FFF5FF063F92000CE
:100C70005EF052FF0F230F220F210F205EF044FF82
:100C800004AC334B02941A68002704929B880AAD87
:100C9000A38006239846039302AB062221009F738C
:100CA0002800089565F09AFE43462622099302AB78
:100CB0009B18282130001F7063F0D8FD132940D9FC
:100CC000012308A836222A215B425FF011FE089812
:100CD000A84204D00A9B591C019365F091FE02982A
:100CE000A04204D0049B591C019365F089FE2200A8
:100CF000184B029443CB43C20C27002602AB0C22B4
:100D00002100039728001E75089565F067FE2C22C8
:100D100002AB9B1809971E70012308A818215B429B
:100D200014325FF0E5FD0898A84203D00A9901311A
:100D300065F066FE0298A04203D00499013165F087
:100D40005FFE0EB080BCB846F0BDC04684A2002055
:100D50002816071030160710F0B5DE464E464546F9
:100D60005746E0B591B0DE4A0991782078215FF0CE
:100D700021FEDC4B00229B461C8800210F2306909D
:100D800000205EF0C1FE0C237822002100205FF0DD
:100D90007DF820005EF0C0FED34B00221B680021CE
:100DA0005C1FD24B00201B6805935D1F5B461E88AD
:100DB0000F235EF0A9FE11231122290020005FF00D
:100DC00065F830005EF0A8FE5B4600221C8800211A
:100DD0000F2300205EF098FE072307224421002005
:100DE0005FF054F820005EF097FE5B4600221C88FE
:100DF00000210F2300205EF087FE072307224421F5
:100E000071205FF043F820005EF086FEB84B1B684F
:100E1000002B2ED0B74B00249946B74B98464B4633
:100E20001B68A6009859B54965F0B1F965F03AFA22
:100E300043461B68B1490500985965F0A8F965F06B
:100E400031FA5B461B8806009A4600220F230021D8
:100E500000205EF059FE11231122310028005FF0BE
:100E600015F850465EF058FEA14B01341B68A342B2
:100E7000D5D800230D22039301936B3300210292F6
:100E8000009306980D335FF0B5F99D4E7168326896
:100E9000914240D09B4B002598469B4B002499469D
:100EA0009A4B9A469A4B9B460FE05B461B685059FB
:100EB0005959013001315EF0DDFE326871688B1ADC
:100EC000013404359B10A34225D91F2020408446BD
:100ED00001206746B840474663093F689B00DB59DD
:100EE0000342ECD14B461B68A34203D053461B6818
:100EF000A342DAD1864B50591B680222595901305E
:100F000001315FF02BF83268716801348B1A0435B7
:100F10009B10A342D9D87F4B1B78002B00D09BE1BC
:100F2000734B1B68002B00D181E00A21099863F004
:100F30009DFC232305936F4B002499466E4B08912B
:100F40009846754B9A46754B9B464346C84699460C
:100F500038E05B461B68C72B00DCE5E0089B052BEF
:100F600000D8E1E043461B68A600059F9859079703
:100F700065F098F94B461B680500985965F092F9A1
:100F8000002D00DA13E10723702D01DD71335B1BA7
:100F9000002800DA07E1702800DC0DE1782100224A
:100FA000091A002602900091069807990396019568
:100FB0005FF020F9059B0134073305934C4B1B6808
:100FC000A34234D953461D68002DC2D14246059B29
:100FD00012680793A300D0581F0065F063F94A46D2
:100FE00012680600D05965F05DF9002E00DAC8E0FD
:100FF0000723702E01DD71339B1B002800DAC8E047
:101000000722702801DD7132121A0021029003912B
:10101000009207992A00069801965FF0EBF8059B6D
:10102000013407330593324B1B68A342CAD83C4EA8
:101030003368002B00DACEE01421099863F016FC27
:101040000B0000210A2B03D8364B1968CB00591A24
:10105000254B1868254B1C68002800DAAFE00723F1
:10106000702800DCAEE071331B1A002C00DBACE012
:1010700062420725002400270190069803970294F6
:10108000009582465FF0B6F83368002B00DAA2E0E4
:101090006F240125002B00D101E107239846153369
:1010A000994616E0E31D772B00DCF5E078231C2140
:1010B0001B1B0220019242460290009250460022E1
:1010C00003975FF097F833680135083CAB4200D2D4
:1010D000E5E0221EE6DA4B460022191B0723E8E76B
:1010E00078A90A1084A2002080A1002084A10020F9
:1010F000A8A00020B8A00020C4A000200000A040AC
:1011000058A0002044A00020A8A10020A4A10020F5
:1011100064A000209AA200209CA10020A0A1002091
:1011200004A100207CA1002043461B68A60098591A
:1011300065F0B8F84B461B680500985965F0B2F8A1
:10114000002D14DB702D2BDD78233F215B1B002845
:1011500013DB702821DD78260022361A0027029042
:1011600003970698019500965FF044F822E73F2127
:101170000723491B00250028EBDA424207260020FE
:10118000ECE7059B9B1B079300260723002800DB49
:1011900036E745420722002037E707260022DDE731
:1011A00007233F21D3E7424207210020F9E67B1BBA
:1011B000079300250723EBE607210022F1E6091A31
:1011C00007230020002C00DA52E7702C6ADD782516
:1011D00000222D1B4FE70CAD2A003A4B0A9503CB9A
:1011E00003C21B780AAC137009236360002320003C
:1011F000637402224221013B5FF07AFB0A98A84205
:1012000003D0A368591C65F0FBFB0F220F230F21AD
:101210000F205EF079FC2C4B200019685FF082FBF8
:1012200001232000022202215B425FF061FB0A9849
:10123000A84203D0A168013165F0E2FB069B002BB8
:1012400003D00C21180065F0DBFB11B0F0BCBB46ED
:10125000B246A946A046F0BD1C4B1B68D900C91A6E
:101260001B4B543118681B4B1C6800281DDB0723DF
:10127000702801DD71331B1A002C1BDB702C1DDD67
:10128000782500222D1B00260190039606980294D3
:1012900000955EF0AFFF43E607231C2109E70AAC87
:1012A0000CADB2E707250022E5E6091A0723002066
:1012B000002CE3DA624207250024E4E70725002238
:1012C000E1E7C04640160710ACA1002094A0002022
:1012D0009CA00020A0A00020F0B5DE4657464E4658
:1012E0004546E0B5734B8BB01B78002B00D0F5E082
:1012F000714B00221C8800210F2300205EF004FCAB
:1013000008237822002100205EF0C0FD20005EF05E
:1013100003FC0F230022072100205EF0F5FB702361
:101320007822092100205EF0B1FD0A220A210F2354
:101330000A205EF0E9FB614B1D68614B186864F0A0
:10134000B1FF04005F4B186864F0ACFF21002A0075
:101350005EF004FE5C4B1C689B46002C00DA90E3B8
:10136000022C00D10CE278DC002C00D186E1012CAB
:1013700000D0FCE10F2305220F2105205EF0C4FB05
:10138000524F3B5D002B75D0651E022D00D1BFE38F
:1013900000DD84E0002D00D1F9E1012D01D000F045
:1013A000FCFB0F2305220F2105205EF0ADFB7B5DCA
:1013B000002B00D1F5E16C1E022C00D1B5E3022C0C
:1013C00000DD1DE3002C00D163E3012C00D0E0E33D
:1013D0000F2305220F2105205EF096FB3B5D002BBD
:1013E00000D160E3651E022D00D1A5E3022D00DDD2
:1013F00010E3002D00D1A6E3012D00D0C0E30F23A0
:1014000005220F2105205EF07FFB7B5D002B00D1C4
:1014100063E36C1E022C00D1A0E3022C00DD02E38A
:10142000002C00D1A1E3012C00D0ADE30F23052255
:101430000F2105205EF068FB254BA4001E68254B9C
:10144000E05864F02FFF0500234BE05864F02AFFBA
:10145000320029005EF082FD1BE1032C00D086E102
:101460000F230F22052105205EF04EFB174F3B5D39
:10147000002B89D1164BA6001B689846154BF058D7
:1014800064F010FF0500144BF05864F00BFF2900C6
:1014900042465EF063FD651E00D376E7F9E0032D5A
:1014A00000D02FE30F230F22052105205EF02CFB37
:1014B0007DE7C046A013002084A20020A8120020CF
:1014C000E4A00020E0A0002074A10020E8A00020FB
:1014D00088120020B49B0020A49B0020C84B00224F
:1014E0001C8800210F2300205EF00EFB5EF022FD21
:1014F00020005EF011FB0F230F220F210F205EF062
:1015000003FB112304AC002203A9200006AD0393C2
:10151000049566F043F8039B1122BA490490A36036
:1015200065F05CFA0022039B049920006360CA54B2
:101530001E21FFF7BBF90498A84203D0A368591CE9
:1015400065F05EFA2A00B04B049543CB43C21B887A
:10155000200013800E23636000237122A3752821CD
:10156000013B5FF0C5F90498A84203D0A368591C59
:1015700065F046FAA54B9B461B68002B00D1FDE0A9
:10158000A34F380004956FF0C3F83900060002003D
:10159000280065F023FA00236660AE1920003C2184
:1015A0003370FFF783F90498A84203D0A368591C4D
:1015B00065F026FA5B461B68012B00D163E2954F6C
:1015C000380004956FF0A4F83900060002002800E6
:1015D00065F004FA00236660AE19200046213370DE
:1015E000FFF764F90498A84203D0A368591C65F07A
:1015F00007FA5B461B68022B00D148E2864F380091
:1016000004956FF085F8390006000200280065F0A7
:10161000E5F900236660AE19200050213370FFF712
:1016200045F90498A84203D0A368591C65F0E8F96D
:101630005B461B68032B00D127E2784F38000495E6
:101640006FF066F8390006000200280065F0C6F960
:1016500000236660AE1920005A213370FFF726F987
:101660000498A84203D0A168013165F0C9F90BB014
:10167000F0BCBB46B246A946A046F0BD0F230F22E0
:101680000F210F205EF040FA654F3B78002B00D110
:10169000F0E6644B1C68022C00D1E9E100DD88E132
:1016A000002C00D1D2E1012C07D10F2305220F21FC
:1016B00005205EF029FA5B4B1C683A5D002A00D1D8
:1016C00086E15B461B68002B00DA88E0564B00275A
:1016D0001E000193462304AC9A4606AD3AE0012F62
:1016E00005D10F2305220F2105205EF00DFA336886
:1016F00071689C46B36861449C46F36861449C46AB
:10170000336961449C46736961449C46B369614492
:101710009C46F36961449C46336A61449C462000C0
:1017200061445FF0FFF801232000002251465B4234
:101730005FF0DEF82068A84203D0A368591C65F06A
:101740005FF90C239C465B461B6801372436E24454
:10175000BB4248DB022F00D14BE137DC002FBED16A
:101760000F230F220F210F205EF0CEF9BFE72C4F81
:10177000651E3B5D002B00D007E67BE62B4F00E7A4
:101780000F23052205210F205EF0BEF9F8E50F2397
:101790000F220F210F205EF0B7F93B78002B00D00D
:1017A00077E7234BAE001B689846224BF05864F055
:1017B00079FD0400204BF05864F074FD424621008E
:1017C0005EF0CCFB6C1E00D3F6E562E7032F8ED1F2
:1017D0000F230F22052105205EF096F987E7124BB3
:1017E00004AC06AD01930F230F220F210F205EF0F2
:1017F0008BF9124B5E681F68B74229D136E0C046AC
:1018000084A20020AC160710C016071074A1002097
:10181000A016071088160710701607105816071024
:10182000E8A0002078A10020C4A100209416071091
:1018300088120020B49B0020A49B002074A00020EC
:10184000BA687968386810375EF050FABE420DD039
:101850003B7B002BF4D0BA68796838685EF08CFA6C
:101860003B7B002BECD01037BE42F1D1CD4B1A6838
:10187000022A00D1F3E04FDC002A00D1DDE0012A8A
:1018800007D10F2305220F2105205EF03DF9C54B3E
:101890001A68C54B1B78002B4CD102239946C34BC9
:1018A00000279B4601239A461AE0534663602D2386
:1018B0002560238101232000002249465B425FF01E
:1018C00017F82068A84203D0A368591C65F098F85F
:1018D00007239C460137E144092F11D0B14B1A6808
:1018E000D3009B18DB19019A9B00D158002903D122
:1018F0005B461B68BB42D8D120005FF013F8D9E7E4
:101900000F230F220F210F205EF0FEF8782208210E
:1019100000205EF0EBF9AAE6032ABAD10F230F22CA
:10192000052105205EF0F0F89E4B1A689E4B1B784F
:10193000002BB2D09E4B9700FB5899469D4B1868E0
:1019400064F08EFC9C4B196864F03BFC9B4964F08E
:1019500024FC804664F0EEFC994B061C1B68404654
:101960009B46984BFF5864F0F7FC011C584664F006
:1019700028FC011C381C64F00AFC64F093FC311C48
:101980008046584664F01DFC494664F003FC64F050
:1019900089FC8346381C64F085FC0700484664F0E7
:1019A00081FC43465A4639005EF0A4FB7D4B1A6821
:1019B00073E7032C00D080E60F230F2205210520BA
:1019C0005EF0A2F8774B1C683A5D002A00D078E6FA
:1019D0007C4B7D4AA400E058176864F063FC050066
:1019E000734BE05864F05EFC3A0029005EF0B6FAF2
:1019F00067E60F23052205210F205EF085F876E6C5
:101A0000032C00D08BE00F230F22052105205EF070
:101A10007BF8E3E4032D5BD10F230F220521052082
:101A20005EF072F8F1E4032C00D005E50F230F22DD
:101A3000052105205EF068F8FEE40F230F220F2138
:101A40000F205EF061F8574B1A6822E70F230F2230
:101A50000F210F205EF058F8524B1C682DE60F2323
:101A6000052205210F205EF04FF84E4B1A6810E753
:101A70000F23052205210F205EF046F8494B1C6814
:101A80001BE6524F05E6524F9AE5524FD6E5524FAC
:101A9000B5E50F230F220F210F205EF035F83B78BC
:101AA000002B00D0F5E5484BA6001B689846454B37
:101AB000F05864F0F7FB05003D4BF05864F0F2FB82
:101AC000424629005EF04AFA651E00D38BE4E0E549
:101AD0007B5D6C1E002B00D09FE43B4BAE001B686F
:101AE0009846384BF05864F0DDFB0400304BF0585A
:101AF00064F0D8FB424621005EF030FA6C1E00D341
:101B000088E4C6E57B5D6C1E002B00D057E448E6F8
:101B10000F23052205210F205DF0F6FF47E43B5D12
:101B2000651E002B00D061E4BDE70F2305220521CF
:101B30000F205DF0E9FF51E40F23052205210F205E
:101B40005DF0E2FF61E40F230F220F210F205DF013
:101B5000DBFF3B78002B00D09BE5BEE70F2305227F
:101B600005210F205DF0D0FF66E40F230F220F2127
:101B70000F205DF0C9FF3B78002B00D089E55BE4C6
:101B80007B5D002BBAD1A8E73B5D002B00D080E540
:101B900052E43B5D002B97D185E77B5D002B00D0A5
:101BA00010E6FEE578A10020AC120020DCA00020A9
:101BB000A49B002064A200203013002000003443C6
:101BC0008C9B0020B49B002088120020E8A00020FD
:101BD0007C1607104C16071064160710F0B5DE4689
:101BE00057464E464546E0B5D44B99B01C685B68F5
:101BF00008939C4218D0D24F25683B68AB421AD05C
:101C0000237BD04E002B25D033685A3BB32B00D812
:101C100076E0B42B00D99FE0237B002B00D18BE131
:101C2000089B1034A342E7D119B0F0BCBB46B246C2
:101C3000A946A046F0BD7B6862689342E0D1BB68CC
:101C4000A2689342DCD1237B3A7B9A42E8D0BD4E16
:101C5000002BD9D13368B32B00D8F5E0BA4B9946A5
:101C6000BA4B0B93BA4B98464B461A68A36880212F
:101C70009B466368C9059A46042303930293930025
:101C800099464A460B9B985864F081FA64F00AFB27
:101C900043464A46802101909858C90564F077FA76
:101CA00064F000FB012300905A46514628005EF084
:101CB0009FFE0028B4D0A74B30681D685A3864F0E6
:101CC000CFFA291C64F07DFA64F02AFB0022A24BB3
:101CD00063F02DF863F030F900229F4B63F045F874
:101CE00008900991281C64F01BFB02000B00089867
:101CF000099963F01CF80022984B63F00FF877E025
:101D0000914B80211A68A36892009B4663689146B4
:101D10009A460423039302938C4BC905985864F0A8
:101D200036FA64F0BFFA4A468021894B01909858F0
:101D3000C90564F02CFA64F0B5FA5B460090012204
:101D4000514628005EF054FE002800D0B0E0336811
:101D50005A3BB42B00D85FE77B4B80211D68A368FA
:101D6000AD009B466368C9059A46236899460423DB
:101D700003930293754B585964F009FA64F092FA90
:101D80008021734B01905859C90564F000FA64F042
:101D900089FA5B4600900122514648465EF028FED3
:101DA000002800D138E76B4B30681D6864F058FAA2
:101DB000291C64F006FA64F0B3FA0022664B62F064
:101DC000B6FF63F0B9F80022634B62F0CEFF0890D3
:101DD0000991281C64F0A4FA02000B0008980999E4
:101DE00062F0A5FF02000B0000205B4962F08DFF4E
:101DF00063F044F81E250023306064210FA8002200
:101E00000593049303950293019300935DF0AEFC58
:101E1000534B6A461B6806950793AF235B000593F7
:101E200013AB23CB23C203CB03C20F981099119A93
:101E3000129B5DF0ADFC01224A4B1A703B0007CCAF
:101E400007C322681A60EFE63F4B616899461B683A
:101E50008B463E490C930B910C99A36889008A46E6
:101E60000D93042380210393029353463748C905F9
:101E7000C05864F08CF964F015FA35495346884629
:101E8000019080214046C905C05864F080F964F093
:101E900009FA01230090594628000D9A5EF0A8FD2A
:101EA000002825D13368B32B00D8B9E62568DBE6D6
:101EB000284B30681D6864F0D3F9291C64F081F95F
:101EC00064F02EFA0022244B62F031FF63F034F804
:101ED0000022214B62F049FF08900991281C64F010
:101EE0001FFA02000B000898099962F020FF7FE7B3
:101EF000184B30681D680F38FF3864F0B1F9291CA1
:101F000064F05FF964F00CFA0022134B62F00FFFEB
:101F100063F012F80022104B62F027FF089009913D
:101F2000281C64F0FDF902000B000898099962F082
:101F3000FEFE00220C4BE0E625688BE674A0002034
:101F4000B412002064A2002078A10020B49B0020DD
:101F5000A49B002030130020008066400080564083
:101F60009C13002095A2002000E07040F0B5DE46F2
:101F700057464E464546E0B505000C009846394B9D
:101F800085B017001E8802220F23022102205DF077
:101F9000BBFD6B1C9B46631C994643464946BA1ED3
:101FA0005846023B5DF072FF30005DF0B5FDEB1965
:101FB000AE1C9F1E3A0021003000019323005EF00A
:101FC00099F8494658465DF055FE494638005DF09F
:101FD00051FEA21C9246019BE81CDA1E5146534654
:101FE000A044914603905EF085F84246911E8846D3
:101FF0000B002800514602922A005EF07BF8019BFC
:102000005146581E020043465EF074F8029A0334AB
:10201000D51E2B003200210030005EF06BF82B0043
:102020004A46210048465EF065F82B004A462900E2
:1020300003985EF05FF8414658465DF01BFE41464E
:1020400038005DF017FE029A3000511E0B003A0076
:102050005EF050F805B0F0BCBB46B246A946A046BB
:10206000F0BDC04684A20020F0B5CE46474604002D
:1020700080B5172389B07822002088466121FFF7B8
:1020800075FF0F230F220F210F205DF03DFDA26988
:10209000E369256B04AF914602979D4200D91D006C
:1020A0004B46002B52D001950F2D1FD8012D59D131
:1020B0001B7802AE33723B00002275605A55012333
:1020C000300006215B4265325EF012FC0298B84295
:1020D00003D0B168013164F093FC226BE3699A424A
:1020E00014D009B0C0BCB946B046F0BD02AE002263
:1020F000300001A965F052FA019B0290B3602A00FA
:10210000494664F06BFC019D029BD5E728214046BF
:1021100062F0ACFB132920D87226712470256F2140
:102120000B0074226D205DF0E5FF2B002900732267
:102130006E205DF0DFFF2100230072226F205DF032
:10214000D9FF310070205DF095FDCAE73B0002AE7B
:10215000002DB1D0064865F0D3F87326722471259E
:102160007021DDE73B0002AE002DA5D03800C6E7A8
:10217000CC150710F0B5DE4657464E464546E0B54D
:10218000974B91B01C8800220F23002100205DF0A6
:10219000BBFC5DF0CFFE20005DF0BEFC0F230F22E4
:1021A0000F210F205DF0B0FC462346221421192098
:1021B000FFF7DCFE1723782261210020FFF7D6FE0F
:1021C0001023002209A90CAC0AA809930A9465F00F
:1021D000E5F9099B102283490C930A9064F0FEFBF9
:1021E0000022099B0A990B93CA5401230AA80621CD
:1021F0005B4265325EF07CFB0A98A04204D00C9BE7
:10220000591C059364F0FCFB1023002209A90AA8BD
:1022100009930A9465F0C2F9099B102272490C9344
:102220000A9064F0DBFB0022099B0A990B93CA54C5
:1022300001230AA806215B426D325EF059FB0A9821
:10224000A04204D00C9B591C059364F0D9FB0F23CA
:10225000782200210020FFF789FE1023002209A91F
:102260000AA809930A9465F099F9099B10225F491D
:102270000C930A9064F0B2FB0022099B0A990B931D
:10228000CA5401230AA806215B4204325EF030FBE7
:102290000A98A04203D00C99013164F0B1FB4021AF
:1022A0004020534A5EF086FB524B8146069317232B
:1022B0009B4600239846504B9A464B460024069D69
:1022C00005932B689946002B2FD01800032162F04C
:1022D000A5FA4E007118CE004846761A032162F026
:1022E0009DFA61000919CB00591A444B420010189D
:1022F0001B78C200121A1C315846002B35D05746A5
:102300003F681523A74232D01527BC46622802DD5C
:1023100063373F1ABC460027019161460290009145
:102320000598310003975DF065FF01340435032CF7
:10233000C7D1059B994601239C46069BE0440C337C
:1023400006935B4615339B464346032BB5D14B465C
:10235000002B03D00C21484664F052FB11B0F0BCB6
:10236000BB46B246A946A046F0BD1523CCE7244F94
:102370003F6807974745C7D1224F3F68032F19D0C1
:10238000042F10D1204B1B685B00C91A002916DAF4
:10239000761A5846002115230028B5DA1527121A97
:1023A000BC460020B7E7012F0FD117480068400056
:1023B0005844F1E7144B1B685B00C918E6E7584620
:1023C00062290ADD78235B1AE6E7022F9CD10E4BC7
:1023D00018685B464000181AF2E71523DCE7C04690
:1023E00084A20020D0160710E4160710F816071074
:1023F00014690A1078130020849B002090A200200A
:10240000889B0020C412002080120020F0B5DE4618
:1024100057464E464546E0B5954B91B01C88002284
:102420000F23002100205DF06FFB5DF083FD200095
:102430005DF072FB0F230F220F210F205DF064FB74
:102440004623462214211920FFF790FD17237822F6
:1024500061210020FFF78AFD1023002209A90CAC9E
:102460000AA809930A9465F099F8099B10228149FA
:102470000C930A9064F0B2FA0022099B0A990B931C
:10248000CA5401230AA806215B4265325EF030FA85
:102490000A98A04204D00C9B591C059364F0B0FA32
:1024A0001023002209A90AA809930A9465F076F876
:1024B000099B102270490C930A9064F08FFA002255
:1024C000099B0A990B93CA5401230AA806215B426F
:1024D0006D325EF00DFA0A98A04204D00C9B591C94
:1024E000059364F08DFA0F23782200210020FFF776
:1024F0003DFD1023002209A90AA809930A9465F05A
:102500004DF8099B10225D490C930A9064F066FA1D
:102510000022099B0A990B93CA5401230AA8062199
:102520005B4204325EF0E4F90A98A04203D00C99B1
:10253000013164F065FA40214020514A5EF03AFAD8
:10254000504B80460693504B002799464246002444
:10255000B8463E01069D173605922B68002B24D005
:10256000D817820F944699180322674611400240FB
:10257000D218464BC91B1B78921020010901120189
:102580001C30002B03D04B461B68A34228D01027D9
:102590003300BC46BA46002702935346019000938D
:1025A0000598634603975DF025FE01340435042C3D
:1025B000D3D14746059B01379846069B10330693B7
:1025C000042FC3D14346002B03D00C21404664F0B6
:1025D00017FA11B0F0BCBB46B246A946A046F0BD02
:1025E0002B4B1B6807934345D1D12A4B1B68032B08
:1025F00013D0042B1FD1284B1B685B00C01A002886
:1026000022DA1027091A33000020BC46002B0CDA0E
:102610001027D21ABA460023BDE71F4B1B685B0088
:10262000C018ECE710273300BC46672B13DD782772
:10263000FF1ABA46AFE7012B10D11027164BBC4644
:102640001B685B009B19E1E7330067280DDD7827E5
:102650003F1ABC46DAE71027BA469CE7022BE1D1C5
:102660000D4B1B685B00F31AEFE71027BC46CDE764
:1026700084A20020D0160710E4160710F8160710E1
:1026800014890A10381300207C9B00208FA20020A0
:10269000809B0020B01200207C120020F0B547463D
:1026A000CE4680B5066889B004AD884691461F00C5
:1026B00044680295002E36D001940F2C24D8012CAA
:1026C00037D16A46337813742B00002203941A55CD
:1026D0004B46002B05D02821380062F0C7F813299B
:1026E00006D90123382241465B4202A85EF000F978
:1026F0000298A84203D00499013164F081F909B02D
:10270000C0BCB946B046F0BD002201A902A864F0E1
:1027100045FF019B029004932200310064F05EF9B2
:10272000019C029BD1E72B00002CCED0034864F023
:10273000E7FD2B00002CC8D02800EDE7CC150710D2
:1027400010B586B05EF06AFA04000F2302220C2155
:1027500002205DF0D9F92100642062F05FF862F098
:1027600075FB0022224B62F000FB62F087FB08231E
:102770000200022103205DF089FB0F2300220F21BC
:1027800000205DF0C1F90322052116205DF0F4FA66
:102790000722032102205DF0EFFA1222022103201A
:1027A0005DF0A4FA0722032115205DF0E5FA12225C
:1027B0000A2103205DF09AFA0F2300220421002051
:1027C0005DF0A2F9210068465EF0ACF8012368468E
:1027D0005B42032203215EF08BF8009802AB984223
:1027E00003D00299013164F00BF906B010BDC04668
:1027F000000032403C2310B592B00593002309A895
:1028000064210493039302930193009300223C33C9
:102810005CF0ACFF0A4B6A461B680793C8235B0059
:102820000693643B05930DAB13CB13C203CB03C2DA
:1028300009980A990B9A0C9B5CF0AAFF12B010BD84
:102840009C130020F0B5DE4657464E464546E0B59F
:102850008DB06A46436808AF0833DB08DB00D31A43
:10286000EB469D4608AC016820006DF049FF2378D7
:102870003A2B03D0637801343A2BFBD16678642E6F
:1028800000D1D1E0042301347B600623FB606F2E6E
:1028900000D1BEE0622E00D1A4E0EE231B01BB609C
:1028A000002E60D06D4D3200303A092A55D80021F3
:1028B0008B0059186678490051183200303A0134BB
:1028C000092AF5D9002948D0B86861F0A7FF00228D
:1028D000613EF3B281469046062B02D8604AD35C33
:1028E00098466378232B40D001342E2B06D14B46DB
:1028F000DB0F4B445B109944013423781A00F968CC
:10290000303A8A46092A03D8D3B29A46013423784A
:102910002C3B5A425341E4184346002B2CD1192139
:10292000484661F07BFF230019260400984606E024
:10293000013E2000F6B25EF06DF9002E0FD02B782C
:10294000002BF5D000232B70DD46BD4605B0F0BC52
:10295000BB46B246A946A046F0BD7968B4E74446F6
:102960002678002E9FD1DD46EFE743460133DBB2E8
:10297000984602342378B8E73A4B48461B680793D9
:1029800062F064FA384A394B62F0EFF962F09AFA71
:102990005246043A53009B189B00354A43445B005F
:1029A0009B5E6A460593334B0690103343CB43C27C
:1029B00003CB03C22F4B19260FCB5CF0E9FE192184
:1029C000484661F02BFF23000400984606E0013ED4
:1029D0002000F6B25EF01EF9002EC0D02B78002B3E
:1029E000F5D0AFE7A2780021303AA01C092A08D818
:1029F0008B0059184900013051180278303A092AE1
:102A0000F6D94678441C1C4861F008FF8300BB607F
:102A100046E7A3781A00333A042A02D8303BDBB2E7
:102A2000FB602679043435E7E178E01C3039092968
:102A300010D800239A00D3185B000130CB1801781E
:102A400030390929F6D9002B04DDDBB27B604678EA
:102A5000441C1AE704237B60F9E7C0469CA20020CF
:102A6000A0DF0810A4130020CDCCCCCCCCCCEC3F04
:102A700014A90A1050A1002060EA0000294BF0B50B
:102A8000CE46994600234746984680B5264D8BB0E2
:102A900006AC4B4600229A56531C24D053009B1878
:102AA000DB00EE58EB185F680494002E2ED00397DD
:102AB0000F2F1CD8012F2DD1337802AA13742300B5
:102AC0004246059704A8DA55FFF7BCFE0498A042D9
:102AD000DFD0069B591C019363F092FF4B46002206
:102AE0009A56531CDAD1FA205EF094F8D1E700220E
:102AF00003A904A864F052FD039B049006933A00D6
:102B0000310063F06BFF039F049BD9E7002F06D1D0
:102B10002300D5E72300002FD2D02000EFE70348A1
:102B200064F0EEFB34130020B4220020CC15071013
:102B30000023F0B5224E0400F356224D5800C01871
:102B4000C0000123002240191F4983B064F006FF32
:102B50000022B2562600530008369B182660DB0080
:102B60005F59EB185D6840B2854200D90500002F1F
:102B70001DD001950F2D09D8012D1DD13B78237251
:102B8000002320006560735503B0F0BD00222000D3
:102B900001A964F003FD0600019B2060A3602A00E8
:102BA0003000390063F01AFF019D2668E8E7002D28
:102BB000E6D0064864F0A4FB002DE1D0EFE7C04664
:102BC00034130020B422002064360B10CC150710FB
:102BD000F0B5DE4657464E464546E0B5E24BBFB03F
:102BE0001C8800220F23002100205CF08DFF5DF087
:102BF000A1F920005CF090FFDC4F3C68200062F0FF
:102C000025F90022DA4B62F092F8DA4BDA4E9B4655
:102C100032681B68009001919A4200D159E20F235B
:102C20000222022102205CF06FFF0D237822002196
:102C300000205DF02BF9FFF783FD0F23052205210E
:102C400005205CF061FF34237822342100205DF000
:102C500051FA42237822422100205DF04BFA0F23E3
:102C60000A220A210A205CF04FFF0B23782236212A
:102C700000205DF00BF90F230F220F210F205CF0D5
:102C800043FF3B68002B04D0BC4B1B78002B00D0CB
:102C900080E032681CAE53009B18B94ADB00126812
:102CA0001A96D3181F685D68002F00D1EEE23895A0
:102CB0000F2D00D9DAE2012D01D000F06EFD502178
:102CC0003B7808AA52181370320038AC00231B95C9
:102CD00053551A9B3AAD98461B9F3895002B01D14E
:102CE00000F003FC32970F2F00D9B0E2012F01D082
:102CF00000F04CFD1B7823722A0000236760D35537
:102D00001B9B20005900CB1878215B00C91A0123B6
:102D1000382249085B425DF0EBFD3898A84203D0A9
:102D2000A368591C63F06CFE1A98B04203D01C993A
:102D3000013163F065FE0F210F200F230F225CF09D
:102D4000E3FE2A008F4B389503CB03C21B8820007B
:102D500013800A23636000230322A3743A21013BFA
:102D60005DF0C6FD3898A84203D0A368591C63F0F3
:102D700047FE854B1B787F2B00D811E1834B1B78D6
:102D8000002B00D044E13FB0F0BCBB46B246A946A0
:102D9000A046F0BD7A4B326898461B689A465300AD
:102DA0009B18DB00534499465B685800C0184000EC
:102DB00062F048F802000B0004000D000020744986
:102DC00061F0A3FF0022734B61F0CFFF5B461A68EE
:102DD000060053009B18DB0053445B680F0058004B
:102DE000C018400062F02EF802000B000020684975
:102DF0000492059361F089FF664B002261F0B5FFF4
:102E0000654B029003911B78002B00D156E2009A8B
:102E1000019B0020614961F078FF32003B00049083
:102E2000059161F0A2FF2B00220006900791009807
:102E3000019961F09AFF02000B000698079961F072
:102E400064FF62F057F8051C63F06AFA32003B0039
:102E500061F0E4FF002804D03000390062F04AF845
:102E6000051C4B4622AF20971B689A464B465E686E
:102E70005346002B01D100F00DFC38960F2E00D9DF
:102E8000CCE3012E01D000F0B1FC68211B7808AA28
:102E9000521813703A0000232196281C935563F0B2
:102EA00001FA00230100002220A8FFF7F7FB209879
:102EB000B84203D02299013163F0A2FD029E039F24
:102EC000002032003B00324961F01FFF049A059B4D
:102ED00061F04BFF32003B0061F020FF62F00AF826
:102EE000051C63F01DFA32003B0061F081FF0028F1
:102EF00004D03000390061F0FDFF051C5B461A6804
:102F000028AF53009B1842461268DB00D31826975F
:102F10001A685E689046002A00D1C8E338960F2EE2
:102F200000D96BE3012E01D000F058FC802113780A
:102F300008AA521813703A0038AC00232796281CB0
:102F4000935563F0AFF900230100002226A8FFF794
:102F5000A5FB26983AADB84200D1ECE6289901319C
:102F600063F04EFDE7E6C04684A2002068A2002080
:102F700000002440B0A10020ECA0002089A2002085
:102F80005C2000200C170710341300208AA20020B8
:102F900000005E400000E03F88A200200000F03FFB
:102FA0000F230F220F210F205CF0AEFD46210020E1
:102FB0001B237822FEF7DAFF2A00B74B389503CBA4
:102FC00003C21988200011809B784A2193700B233B
:102FD00063600023E374FDF769FC3898A84203D0CE
:102FE000A368591C63F00CFD2000FFF7A1FD200031
:102FF0005621FDF75BFC3898A84200D1BEE6A368D5
:10300000591C63F0FDFCA54B1B78002B00D1BAE6E0
:103010000F230F220F210F205CF076FD1C23782256
:1030200046210020FEF7A2FF5D230722562107203C
:103030005DF060F85C230622572106205DF05AF807
:103040005B230522582105205DF054F85921042006
:103050005CF010FE5D236F2256216F205DF04AF870
:103060005C237022572170205DF044F85B237122AD
:10307000582171205DF03EF8592172205CF0FAFD74
:103080000723632256210A205CF0D2FE844B1B6882
:10309000002B00D141E2012B00D10CE3022B00D028
:1030A00071E62A007F4B389503CB03C21B782000C2
:1030B00013700923636000234A216374FDF7F6FB54
:1030C0003898A84203D0A168013163F099FC764B8F
:1030D00037E2764B1D689A46002D00DC0AE26B1E33
:1030E0009946734B5A6898461B68D11AC9108A00D2
:1030F00052181301D2181302D2181304D3185B000C
:103100005B1801359D429B411D40002C04D0694B4A
:103110001B78002B00D175E10F2305220521052026
:103120005CF0F2FC42464B4612685B0094464B440E
:103130000AAADB00634408921A685B680292994607
:10314000002A00D159E138930F2B00D91CE2012B42
:1031500000D02AE3137808AA13720AAA4B464946FC
:103160000993002308A853541021FDF79FFB0898EA
:103170000AAB984203D00A99013163F041FC0F2356
:103180000F220F210F205CF0BFFC53461A6853003A
:103190009B1842461268DB00944610AA63440E92C4
:1031A00092461A685B6802929946002A00D10DE2A5
:1031B00038930F2B00D9F8E1012B00D0FBE220213E
:1031C000137808AA5218137052464B4649460F937B
:1031D00000230EA853544621FDF768FB0E98504576
:1031E00003D01099013163F00BFC0F230522052158
:1031F00005205CF089FC6B005D1943461B68ED00FF
:103200005D1916AB149398462B686D689946002B90
:1032100000D1DFE138950F2D00D9A5E1012D00D0B7
:10322000CFE238211B7808AA5218137042460023B7
:10323000159514A870215355FDF738FB1498404597
:1032400000D1ECE41699013163F0DAFBE7E40022E7
:10325000200032A964F0A2F9329B2060A3603A00FA
:10326000414663F0BBFB329F389A46E538AC0022FA
:1032700021001AA864F092F9389B1A901C932A0036
:10328000390063F0ABFB389D1A9A1FE5002D00D181
:103290001AE5094864F034F8181707108AA20020CC
:1032A000B4A10020F815071084120020F0A000201F
:1032B0006820002089A20020CC15071032003B00B6
:1032C0000020E64961F021FD009A019B61F04DFD6F
:1032D00032003B0061F022FD61F0D0FD050061F09D
:1032E000B5FD32003B0061F083FD002804D03000C2
:1032F000390061F0C3FD05004B462EAF2C971B68CB
:103300009A464B465E685346002B00D1CBE1389677
:103310000F2E00D962E1012E00D06EE298211B78B9
:1033200008AA521813703A0000232D962CA8935522
:1033300029000022FFF7B2F92C98B84203D02E9949
:10334000013163F05DFB029E039F009801993200FA
:103350003B0061F00AFD009A019B0D000400C0498A
:10336000002061F0D2FC049A059B61F0FEFC020093
:103370000B002000290061F0C8FC61F07FFD050012
:1033800061F064FD32003B0061F048FD002804D08C
:103390003000390061F072FD05005B461A6834AFF9
:1033A00053009B1842461268DB00D31832971A6804
:1033B0005E689046002A00D171E138960F2E00D940
:1033C0003CE1012E00D002E2B021137808AA521885
:1033D00013703A0038AC00232900339632A8935575
:1033E0000022FFF75BF932983AADB84200D1A2E46F
:1033F0003499013163F004FB9DE40AAA002B00D14B
:10340000ACE646E70F230522052105205CF07CFB96
:10341000944B00221B78002B00D064E100980199A6
:10342000914B61F0A2FC914B002261F077FC61F0BE
:1034300061FD8F49041C62F009FF7023029300288C
:1034400003D1201C62F02EFF029053461A683AAD59
:1034500053009B1842461268DB00944638AC634424
:10346000389506CB20008A18FDF724F82000029931
:10347000FDF71CFA3898A84203D0A368591C63F0E2
:10348000BFFA0098019900227A4B61F06EFC7A4BEA
:10349000002261F043FC61F02DFD7849824662F024
:1034A000D5FE46230293002803D1504662F0FAFE6F
:1034B00002904B465B004B4442461268DB00389555
:1034C000D31806CB20008A18FCF7F4FF20000299DD
:1034D000FDF7ECF93898A84201D1FFF7A0FBA168ED
:1034E000013163F08DFAFFF79AFB002F01D1FFF74E
:1034F00003FCCEE6624B5A6898461B68D11AC91085
:103500008A0052181301D2181302D2181304D318C8
:103510005B005B185A1E9146F3E52900594A38951D
:10352000C1CAC1C10C2220004A2162602375FDF787
:10353000BDF93898A84203D0A168013163F060FA60
:10354000514B186862F08CFE62F0EAFE4F4A504B15
:1035500061F00BFC61F092FC0723020056210B2066
:103560005CF094FCFFF70FFC38AC0022210014A89B
:1035700064F014F8389B149016932A00494663F0BF
:103580002DFA389D149A52E638AC0022210008A882
:1035900064F004F8389B08900A934A46029963F055
:1035A0001DFA389B089A9946D8E538AC00222100CC
:1035B0000EA863F0F3FF389B0E9010934A460299D1
:1035C00063F00CFA389B0E9A9946FEE5002B00D169
:1035D000FAE55EE6002D00D128E65AE638AC002276
:1035E00021002CA863F0DAFF389B2C902E93320038
:1035F000514663F0F3F9389E2C9A95E638AC0022D8
:10360000210026A863F0CAFF389B26902893320039
:10361000414663F0E3F9389E269A8EE438AC0022E6
:10362000210020A863F0BAFF389B2090229332003B
:10363000514663F0D3F9389E209A2CE438AC00222E
:10364000210032A863F0AAFF389B329034933200F5
:10365000414663F0C3F9389E329ABCE600005E40F2
:103660000000F03F88A2002000004540008051404B
:103670000000E04200004B400000304000008C425F
:103680006820002024170710A41300205C8FC2F5C7
:10369000285CEF3F002E01D1FFF7FCFBF9E5002E7F
:1036A00000D196E6F5E5002E00D13CE6F1E5002ECE
:1036B00000D140E4EDE52A00534B389503CB03C21B
:1036C0001B88200013800A23636000234A21A3740F
:1036D000FDF7ECF83898A84203D0A168013163F0F7
:1036E0008FF94A4B2DE74A4B0098019961F03DFB59
:1036F0000B0002004749002061F007FB61F0FAFB74
:103700004549041C62F094FD46239946002803D1E4
:10371000201C62F0C7FD8146424612686B00944649
:103720005B19DB003AAD634438AC389506CB20001A
:103730008A18FCF7BFFE20004946FDF7B7F8389815
:10374000A84203D0A368591C63F05AF90098019964
:103750000022324B61F009FB0B00020030490020CF
:1037600061F0D3FA61F0C6FB8321C905814662F09E
:103770005FFD10230293002803D1484662F092FDBA
:10378000029053461A6853009B1895E62A00002FB2
:1037900001D1FFF7B2FA280061E5320038AC002D04
:1037A00001D1FFF793FA300069E50AAA002B00D196
:1037B000D4E41000F1E65246002B00D105E5504656
:1037C000FCE64246002D00D131E54046D5E63A0000
:1037D00038AC002E00D1FEE5380038E73A0038ACAE
:1037E000002E01D1FFF7A9FB380010E73A00002EA8
:1037F00001D1FFF750FB380019E73A00002E00D145
:1038000092E53800F3E6C046341707109C130020F9
:103810000000454000005C4000008C4200004B402E
:1038200000805140F0B504004D001E4F6D18ED00B2
:10383000EE190123002230001B4983B064F08EF89A
:103840002300083323607F59756840B2854200D950
:103850000500002F1DD001950F2D09D8012D1DD178
:103860003A7822720022200065605A5503B0F0BDFC
:103870000022200001A963F091FE0300019A20605C
:10388000A2602A001800390063F0A8F8019D23689F
:10389000E8E7002DE6D0054863F032FD002DE1D0C9
:1038A000EFE7C046B422002064360B10CC15071099
:1038B000F0B5DE4657464E464546E0B5FD4C002580
:1038C000A5440124FC4B002208330360FB4B00217C
:1038D0001C70FB4B02901D70FA4B00201E880F23BA
:1038E0005CF012F95CF026FB30005CF015F9382230
:1038F000F54B04201A603523F4490B60F449086045
:10390000F4490A60F44A13600322F44B1D60F44B3F
:103910001D70F44B1D60F44B1D609B46F34B1D6006
:10392000F34B1D60F34B1D60F34B1D60F34B1A60AE
:10393000F34BBB321D60F34B1A60F34B1C606CAC55
:103940002600F24B9A4607CB07C61B682100F048B9
:10395000336070AAFCF748FD53462200103383CB36
:1039600083C21B682100EB48336070AAFCF73CFD62
:1039700053462200203383CB83C21B68210033606F
:10398000E54870AAFCF7C8FD9422E449200063F0E2
:1039900025F82100E24891AAFCF7BEFD9422E149F6
:1039A000200063F01BF82100DF4891AAFCF7B4FD6A
:1039B00002220423069207930023002208206C921F
:1039C0006D93A56063F010F806000836082206A97A
:1039D0006C90A66063F002F86660534624AE300037
:1039E000303386CB86C0E560256165610C2062F0CE
:1039F000FBFF07000C3731000C226761E06062F0CA
:103A0000EDFF03220223089209930022002327617D
:103A1000082072927393256262F0E6FF08239846AD
:103A2000804443460822236208A9A06162F0D6FFC1
:103A3000434602210422E3616562A562E562082033
:103A40000A910B9262F0D0FF0823984680444346C7
:103A50000AA90822E362606262F0C0FF4346A362E3
:103A600027AB984653464046303346CB46C00022EB
:103A700000230C2078927993A56362F0B5FF0C23A4
:103A8000994681444B4641460C22A363206362F071
:103A9000A5FF4B46032263630223E5632564656447
:103AA00008200C920D9362F09FFF06000836082252
:103AB00066640CA9E06362F091FF002304210022F8
:103AC000012026640E900F917E927F93073025652A
:103AD00062F08AFF0600083608220EA92665A06457
:103AE00062F07CFF54AFE66456463B003C3607CE9E
:103AF00007C301963168102019606565A565E56505
:103B000062F072FF10239846804443461022390029
:103B1000E365606562F062FF43462AAFA3655346E2
:103B200039004C3345CB45C1002200230C20849240
:103B30008593A56662F058FF0C239846804443465F
:103B40000C223900A366206662F048FF43462DAF81
:103B5000636653463900583345CB45C1E566256752
:103B600065670C2062F040FF0C2398468044434672
:103B700039000C226367E06662F030FF434658AFBD
:103B8000236753463A003C3343CB43C2019B10208A
:103B90001B681360002200238A928B938023E550D8
:103BA000994662F021FF1023984680444B464146D7
:103BB0001022A067E150390062F010FF4346E3672E
:103BC00084238827012103229846E5500833E551D4
:103BD0000820E55099461091119262F005FF434686
:103BE000E0507C3B984680444B46424610A9E25048
:103BF000082262F0F3FE434602210422E3511291AF
:103C00001392002300229092919398230820E5506C
:103C1000984662F0E9FE90230700E05043460837DB
:103C2000082212A9E75062F0D9FE9423E75030AF82
:103C300053463800643346CB46C09C239946E55032
:103C40000433E55098460433E5500C201E0062F022
:103C5000CBFE4B46E050903B994681444A463900A2
:103C6000A2510C2262F0BAFE4F464346E75033AFF2
:103C700053463800643346CB46C000220023969258
:103C80009793B0230C20E550994662F0ADFEA8232F
:103C9000E0509C3B984680444B4642463900E250F7
:103CA0000C2262F09BFE4746AC230321E750022022
:103CB000B8273BE07CFCFFFFD81B0B109CA2002028
:103CC0003413002084A2002080A1002084A10020C1
:103CD0007CA100209CA00020A0A0002094A0002097
:103CE0009AA2002098A00020A8A10020A4A1002052
:103CF0009CA10020A0A10020ACA1002004A10020D4
:103D0000A4A00020C0A10020A8A00020F8D2081084
:103D1000B8A00020C4A00020ACA0002068D30810E8
:103D20006CA20020FCD3081078A20020083398462B
:103D3000E5500833E55114901591E5500630994649
:103D400062F052FE4346E050AC3B984680444B46FE
:103D5000424614A9E250082262F040FE4346E35175
:103D60005CAF53463A003C3343CB43C2019B102027
:103D70001B681360002200239C929D93C823E5508A
:103D8000994662F031FEC023E050B03B9846804433
:103D90004B4642463900E250102262F01FFE474671
:103DA000C423E75036AF53463A004C3343CB43C2AB
:103DB000CC239946E5500433E55098460433E5504A
:103DC0000C201E0062F010FE4B46E050C03B9946AE
:103DD00081444A463900A2510C2262F0FFFD4F4651
:103DE0004346E75039AF53463A00583343CB43C2BA
:103DF00000220023A292A393E0230C20E5509946D1
:103E000062F0F2FDD823E050CC3B984680444B460C
:103E100042463900E2500C2262F0E0FD4746DC23C6
:103E2000E75060AF53463A003C3343CB43C2019B5B
:103E300010201B681360E4239946E5500433E550D5
:103E400098460433E5501E0062F0CEFD4B46E0502C
:103E5000D43B994681444A463900A251102262F06F
:103E6000BDFD4F464346E7503CAF53463A005833FA
:103E700043CB43C200220023A892A993F8230C202D
:103E8000E550994662F0B0FDF023E050E43B9846DF
:103E900080444B4642463900E2500C2262F09EFDBF
:103EA0004746F4230422E750032316921793FC237A
:103EB00080279846E5507F000833E5510820E550FB
:103EC000994662F091FD4346E050F43B98468044A9
:103ED0004B46424616A9E250082262F07FFD434657
:103EE000E3513FAF53463A004C3343CB43C2002229
:103EF0000023AE92AF9388235B00E5500C209946D7
:103F000062F072FD84235B00E050FC3B98468044E5
:103F10004B4642463900E2500C2262F05FFD862398
:103F200047465B00E7508C2708330221042298465D
:103F3000E5507F000833E5510820E5509946189177
:103F4000199262F051FD4346E0500D3BFF3B98460D
:103F500080444B46424618A9E250082262F03EFDDA
:103F60004346E35164AF53463A003C3343CB43C22C
:103F7000019B10201B68136000220023B492B593AC
:103F800094235B00E550994662F02EFD90235B0080
:103F9000E050113BFF3B984680444B464246390077
:103FA000E250102262F01AFD922347465B00E75070
:103FB00042AF53463A00643343CB43C296235B007F
:103FC0009946E5500433E55098460433E5500C20FB
:103FD0001E0062F009FD4B46E050213BFF3B994635
:103FE00081444A463900A2510C2262F0F7FC4F4648
:103FF00043460022E7500023BA92BB93A02303213B
:1040000002205B001A901B91E5500630984662F042
:10401000EBFC9C2307005B00E05043460837E75069
:1040200008221AA962F0DAFC9E235B00E750A4275D
:104030000833022104229846E5507F000833E551F9
:104040000820E55099461C911D9262F0CDFC434634
:10405000E0503D3BFF3B984680444B46414608229A
:10406000E1501CA962F0BAFC4346E35145AF534608
:104070003900643345CB45C100220023C092C1936F
:10408000AC235B00E5500C20994662F0ADFCA82300
:104090005B00E050453BFF3B984680444B46414621
:1040A0000C22E150390062F099FCAA2347465B00DC
:1040B000E75068AF53463A003C3343CB43C2019BC1
:1040C000B0261B6876001360AE235B009846E5506F
:1040D0000833A5511020E550994662F085FC43460F
:1040E000E0504D3BFF3B984680444B4641461022F2
:1040F000E150390062F072FC4346B827A351032116
:104100000022002302207F00C692C7931E901F91B9
:10411000E551063062F068FCB42306005B00083607
:104120000822E0501EA9E65162F058FCB6235B005D
:10413000E650BC2604210120103304377600E551F7
:1041400020902191A5510730E550984662F04CFC33
:10415000E051070043460837E75020A9082262F0E3
:104160003DFCA751534648AE3000643386CB86C031
:1041700000220023CC92CD93C4235B00E5500C2099
:10418000984662F031FCC02307005B00E0504346D4
:104190000C3731000C22E75062F020FCC2235B0098
:1041A000E7504BAE53463000643386CB86C0C623FF
:1041B000C8275B009846E5507F000833E5510C2086
:1041C000E550994662F010FC4346E050813BFF3BCE
:1041D000984680444B4641460C22E150310062F043
:1041E000FDFB43464EAEE35153463000643386CB6D
:1041F00086C000220023D292D393D0235B00E550E7
:104200000C20984662F0F0FBCC2307005B00E050E6
:1042100043460C3731000C22E75062F0DFFBCE231F
:104220005B00E75051AE53463000643386CB86C006
:10423000D223D4275B009846E5507F000833E55130
:104240000C20E550994662F0CFFB4346E050993B85
:10425000FF3B984680444B4641460C22E1503100DA
:1042600062F0BCFB012143460322DC26E35122918C
:104270002392002300227600D892D9930820A551DA
:1042800062F0B2FBD82305005B000835E05008223D
:10429000A55122A962F0A2FBDA23DE205B00E550E3
:1042A000C44B40001E6899469B689B1B834239D2D1
:1042B00062F09AFB00230500A0469A4601900FE0A9
:1042C000170030006DF058F93B009C460C23664403
:1042D0009C46DBABE0446E600C35984500D144E170
:1042E00042464346116852465B682A605F1A6A601C
:1042F000AA608B4212D0B04B9F4200D998E238009E
:1043000062F072FB434606000ACB5A1AF7192E6078
:104310006E60AF609942D3D11300D6E70022002728
:104320000026F3E74B465D68AA1B824200D253E1A8
:10433000DBAB3700B04625001E00290038000C35E5
:10434000FBF7E6FF0C37B542F7D146464B46BD3684
:104350005F68FF36B7420DD035002868002800D1CD
:1043600097E1AB680C35191A62F04AFBAF42F4D101
:104370004B465E60D898D8AD00280BD0AB68191AB0
:1043800062F03EFB2B000C3BAC4207D01D002868BE
:104390000028F3D12B000C3BAC42F7D1E6222000E1
:1043A0008649520062F01AFB21008548DFAAFCF71B
:1043B000B3F8E62220008349520062F00FFB21008F
:1043C0008148DFAAFCF7A8F800212000732262F0E0
:1043D000FFFA7E4CA7682168E6687B1ADB009A46E4
:1043E000B2445346732B4AD906AA9446784F00200C
:1043F00001266CAB674408E00D6801332A430A606C
:104400001F280ED00130BB420FD032001D788240F1
:10441000002DF1D10D68013395432A000A601F2851
:10442000F0D100200431BB42EFD1A160E0606BF01D
:10443000F9FEA3682268991AE368C9009C466144A2
:1044400060F014FA5B4619606BF0ECFEA36822681A
:10445000991AE368C9009C46614460F007FA5D4B15
:1044600019605B461B689942EED00298E1239B00DD
:104470009D44F0BCBB46B246A946A046F0BD6CAB1D
:104480009C460123994653466CAD00225544002BAF
:104490001FD06346B0468C46100008E00E6801331A
:1044A00032430A601F280ED001309D420FD04A4689
:1044B0001E788240002EF1D10E68013396433200FF
:1044C0000A601F28F0D1002004319D42EFD14646FA
:1044D000614606AA94463E4B63449D42A7D05B1BAF
:1044E0009946524623695B1ADB009B1A994500D90D
:1044F000D4E01F214B460A00F018C3171A401218C7
:10450000521192009446DB0EC0180140CB1A9A4615
:104510009846BC44002B00DAB7E04B460120EA186D
:10452000002B09DC18E0396801350B433B601F2E76
:104530000ED00136AA420FD003002978B3400029DB
:10454000F1D13968013599430B003B601F2EF0D142
:1045500000260437AA42EFD15346002B00DA90E040
:104560006346A3604346E36061E74B4660CBB542D8
:104570000BD02868002819D0AB680C35191A62F0E6
:104580003FFAAE42F5D14B461E68002E05D04B4691
:104590009B683000991B62F033FA019B4A46180071
:1045A000BD30FF30136050609060E3E60C35AE42E2
:1045B000DFD1E8E7709B0020FCFFFF7F90D408105C
:1045C00058A000205CD6081064A0002044A0002061
:1045D0000B020000A4A1002091108B005B181801B1
:1045E0001B1818021B1818041B185B009846A71804
:1045F0008844002A0FD043462500B8461F002900F2
:104600003000013FFBF784FE0C350C36002FF6D14D
:104610004B4647465D68DBAB01939F422ED000239B
:10462000B8469A461DE0834B9F4200D900E138000E
:1046300062F0DAF906004346F719AF602E606E604B
:104640000ACB5F1A994203D03A0030006CF094FF15
:104650000C239C46019BF619E0446E600C3598458E
:104660000CD0434651465A681B682960D71A6960C6
:10467000A9609A42D7D100270026DCE74B465D604F
:1046800078E66246043AA2606CE7202353449846D9
:1046900043E70C35AF4200D05FE669E6664B9B1AF4
:1046A000994500D9C1E05346CA4500D24B46534410
:1046B0009A4500D9B2E0604A934200D9ACE01F337A
:1046C0005B099B001800039362F08EF92368019048
:1046D000FA1A924604939F4202D019006CF04CFFE4
:1046E000019B32009C46E244002E00DC9AE000234D
:1046F000B4461100A84601203E001A005546059711
:1047000008E02F683B432B601F2A0ED0013201398D
:1047100000290ED00300934037681F42F1D12F6863
:104720009F433B002B601F2AF0D100220436043542
:10473000EDE7AA46664645469046059F4B46002B48
:1047400023DDEA1841460120B846B4461700524618
:1047500008E016680135334313601F290ED001317C
:10476000AF420ED003002E788B40002EF1D1166898
:1047700001359E43330013601F29F0D1002104321C
:10478000EEE74746924666468846A368E268DB1B2A
:10479000DB00921B9B18002B2CDDBC4601204546FC
:1047A00057460DE041463A6811430A003A601F2E11
:1047B00015D001361F2D18D00135013B002B17D025
:1047C0000200AA40010090466246B14012680A42C7
:1047D000E8D141463A688A433A601F2EE9D1042263
:1047E00090460026C4441F2DE6D100250437E4E797
:1047F000A846BA460498002803D02369191A62F023
:10480000FFF8019A039B944663442361002363608D
:1048100053462260A360A5E6130050E7074B18003B
:10482000039351E70023984688E7054862F098FD16
:1048300062F056FDFCFFFF7FE0FFFF7FFCFFFF0FF4
:1048400040170710F0B5C6468046264800B54368B5
:1048500005685E1BB610AB4236D0234B00241868A7
:10486000002303E001340433B4422DD0EF588F42CB
:10487000F8D1C7589742F5D163001C191B4BA4000F
:104880001B6840461C1900236168226803608E1A69
:1048900043608360914220D0154B9E4220D8300067
:1048A00062F0A2F805004346AE191D605D609E608F
:1048B0000ACC5C1A994203D0220028006CF05CFEFE
:1048C00043462D195D6004E00C220021404662F051
:1048D0007FF8404680BCB846F0BD00260025E2E7E0
:1048E00062F0FEFC6CA2002078A20020709B0020E9
:1048F000FCFFFF7F10B5694B86B01A68684B03A8B0
:104900001968FFF79FFF049B17200193019A039BEF
:10491000934238D05CF05EF9002818D00398049BCD
:10492000191A01938A1003000918002A07D05D4C58
:104930001A68012A00D1226004339942F8D1002874
:1049400003D00599091A62F05BF806B010BD11207A
:104950005CF040F90028E1D114305CF03BF900280C
:104960005CD00398049B191A01938A10030009185C
:10497000002AE4D04B4C1A68022A00D1226004338A
:104980009942F8D1DBE75CF025F9002833D0454B9C
:104990001A68022A26D014205CF01CF9002824D0C2
:1049A000404B1A68012A1AD016205CF013F900282F
:1049B0002ED03C4B1A68042A0ED015205CF00AF960
:1049C00000281ED0374B1A68032A01D00398B6E797
:1049D000042203981A60B2E703221A60EDE702226C
:1049E0001A60E1E701221A60D5E713205CF0F2F8C3
:1049F0000028D5D1D8E711205CF0ECF80028C6D10A
:104A0000C9E712305CF0E6F80028DBD1039896E79E
:104A100010205CF0DFF80028CBD1CEE713205CF04B
:104A2000D9F800289DD116305CF0D4F8002812D0B7
:104A30000398049B191A01938A1003000918002A8D
:104A400000D17CE7174C1A68032A00D12260043396
:104A50008B42F8D173E710205CF0BCF80028E7D156
:104A600015305CF0B7F8002811D0049B039801932F
:104A70001B1A9A1000D162E702000A4C1B18116839
:104A8000042900D1216004329A42F8D157E712205C
:104A90005CF0A0F80028E8D1039850E784A100203A
:104AA00080A100207CA10020F0B5C64600B5524B85
:104AB000524C84B0226801A819689846FFF7C2FEDC
:104AC000029A0198904237D0121A931066D00300D0
:104AD00000264B4F121839681D68A94200D10126E3
:104AE00004339A42F8D12368442B0BD0002E27D1EF
:104AF000002803D00399091A61F082FF04B080BC3A
:104B0000B846F0BD42461268002A0BD142462D330A
:104B100013606E3B3B60002EEAD071224346013A9F
:104B20001A60E5E7712A2DD0002EE1D03A68022AFA
:104B300009D101332360DBE72368442B1AD0304FBF
:104B40003A68022A27D0022A06DC012AD0D1112B8A
:104B5000CEDD013B2360CBE7032A3CD0042AC7D13A
:104B6000424612686C2A01DD442BC1D14346013212
:104B70001A60BDE742461268002A1DD1204B03325D
:104B80001A60CAE700234246136004333B60002EDC
:104B9000AED00022EAE76C2BAADCCAE72268442ADE
:104BA000A6D142461268002A1DD1712342461360E5
:104BB0000322134B1A609BE7712A07D0104A126830
:104BC000022AB6D0C8DC012AC3D091E704220C4BDC
:104BD0001A600022CAE742461268042A9EDC442B6F
:104BE00000D085E79AE7712A00D081E7424613603A
:104BF0000422034B1A607BE780A1002084A10020DF
:104C00007CA10020F0B5DE4657464E46454696212B
:104C1000E0B5B34A87B013684900013313608B4293
:104C200000DD42E1AF4B9B461B68002B4ED0AE4BE4
:104C300000279846AD4B994643461B68BE009859DD
:104C400061F030FB4B461B680400985961F02AFB69
:104C50002200010003A8FFF7F5FD049D039CAC4270
:104C600041D143461B68985961F01CFB442800D091
:104C7000F9E0012301934B461B689A46B244534620
:104C8000186861F00FFB002800DCF0E0702800DC01
:104C9000F4E0524600231360954B9A465246042393
:104CA00012689351AC4200D011E1019B002B00D05F
:104CB000D9E0002C11D0059B2000191B019361F055
:104CC0009FFE5B461B6801379F42B5D307B0F0BC1F
:104CD000BB46B246A946A046F0BD5B461B680137FD
:104CE000BB42A9D8F2E72A1B931000D1E9E0804B20
:104CF00000201B68121999592300019018688142FD
:104D000001D10120019004339342F7D143461B683F
:104D1000985961F0C7FA4428ADD0754B9A461B6884
:104D20009B59022B3BD02000012B4AD0032B00D0F3
:104D3000CAE00368042B4DD004308542F9D16BF0F2
:104D400071FA049B039C0193191B89105FF08EFD7F
:104D5000524689000B5912689351664A1268002A1C
:104D600061D1FD25AD05032B60D0032B3CDC012B6D
:104D700000D187E0022B9CD143461B685E499C46CC
:104D800066443368181C9A4661F052FA002800D134
:104D90008FE75046291C61F0FDF9306089E72368F0
:104DA000012B05D00434A542C9D02368012BF9D1C9
:104DB000211D8D4215D06A1A20006CF0DDFB04998C
:104DC0000FE00368022B05D004308542B7D003689A
:104DD000022BF9D1011D8D4203D06A1A6CF0CCFB75
:104DE000049904390491AAE7042B00D061E74B46EB
:104DF0001B6841499A46B24453461B68181C0193EC
:104E000061F016FA002807D143461B68985961F0F3
:104E100049FA442800D04CE70198291C61F0BAF9FE
:104E20005346186045E7354D032B9ED14B461B6812
:104E300081219A46B24453461B68C905181C019348
:104E400061F004FA002807D143461B68985961F0C5
:104E500029FA442800D02CE70198291C61F097F921
:104E60005346186025E7224B1B689B5975E752464D
:104E7000234B136003221E4B1B689A51AC4200D196
:104E800013E74AE743461B681E499C46664433685D
:104E9000181C9A4661F0DAF9002800D109E750465B
:104EA000291C61F074F9306003E70E4B9B461B68C8
:104EB000032B00DDBBE6594601330B600021116076
:104EC000B3E60023019321E7042B00D037E720004D
:104ED0000368032B00D17DE704308542F8D12EE72B
:104EE000A4A00020A8A00020C4A00020B8A00020FA
:104EF000ACA000209CA100200000DA42CDCCCC3E2A
:104F00000000E24200008841F0B54546DE465746C3
:104F10004E46E0B58C4B95B098461B680893002B25
:104F200000D10AE100230993884B00259B46884B5A
:104F30009946884B9A4646E00222874B87493B6058
:104F4000874B2360874B38681B689A5161F01FF9C3
:104F500061F0A8F90400844B00221E8800210F2371
:104F600000205AF0D1FD11231122412120005AF0D6
:104F70008DFF30005AF0D0FD1E24002364210BA8C1
:104F800000220593049303940293019300935AF033
:104F9000EDFB764B6A461B6806940793AF235B00D4
:104FA00005930FAB13CB13C203CB03C20E9B0B981D
:104FB0000C990D9A5AF0ECFB43461B680893089B2A
:104FC0000135AB426ED95B461B68AE009C194B465F
:104FD000186861F045F9011C206861F0D8F861F0AB
:104FE00061F9C317C01858400228E8DC53461B6813
:104FF0009F195F4B186861F033F9011C386861F044
:10500000C6F861F04FF9C317C01858400228D6DC23
:10501000584B1B68002B8FD13C2264210BA80592B2
:105020000493002203930293019300933C235AF0CC
:105030009DFB4E4B6A461B6801350793C8235B00F6
:105040000693643B05930FAB13CB13C203CB03C290
:105050000B980C990D9A0E9B5AF09AFB444B002228
:105060001B68002108935C1F4B461B6800205E1FD5
:105070003D4B1F880F235AF047FD112311223100A9
:1050800020005AF003FF38005AF046FD3A4A1368F0
:10509000013B136043461B68089301230993089B57
:1050A000AB4290D8099B002B47D0089B002B3BD0EC
:1050B0005B4600252B4A1F68264B91462A4A9A4692
:1050C0001B680992AC001859244961F060F861F03E
:1050D000E9F822490600385961F059F861F0E2F820
:1050E0000700099B00221B880021002008930F2342
:1050F0005AF00AFD39001123112230005AF0C6FE81
:1051000008985AF009FD5346134A1B6849461A513C
:105110005A461768124A09683A5102220A51424611
:1051200012680135AA42CDD80123424613600022FD
:10513000124B1A60124B28321A6015B0F0BCBB46F5
:10514000B246A946A046F0BDA8A00020C4A00020F9
:1051500084A10020B8A00020000060420000A04010
:1051600000008C42ACA0002084A200209C130020F0
:1051700080A100209CA1002004A10020A4A0002068
:10518000C0A10020F0B55746DE464E464546424B8C
:105190004149E0B509689B683F4A5B1AD2688A4674
:1051A000D900891895B000296FD03C490024894660
:1051B0003B493C4E88463C4D04E0D90001348918F7
:1051C000A14262D92F683168A0003F580231B9422C
:1051D000F3D1474649463F68096838580231814251
:1051E000EBD11F20012720408740BC466109890080
:1051F000514408680740BB4667460742DDD15B461D
:1052000038430860059304931E239A4603935B4634
:1052100064210BA8002202930193009300235AF00B
:10522000A5FA224B6A461B680993079353460693D7
:105230004133FF3305930FAB83CB83C203CB03C250
:105240000D9A0E9B0B980C995AF0A2FA184A136803
:105250000A331360174B1B68A34202D10122164B7D
:105260001A60164B1B68A34202D10122124B1A602E
:10527000094B01341B689A465146074BDA689B6814
:105280005B1AD9008918A1429CD815B0F0BCBB4666
:10529000B246A946A046F0BD44A0002084A100204B
:1052A00064A0002080A1002058A000209C130020B2
:1052B000ACA10020A8A100209CA10020A4A1002056
:1052C00030B52748274902780B6893B0002A01D1EE
:1052D00001330B60FA246400A34202DD01230122A2
:1052E0000370214B1C68214B1B689C4201D013B0FA
:1052F00030BD1F4B1C681F4B1B689C42F7D1002A16
:10530000F5D000241C4A0C6013680470FA33136053
:105310006AF088FF05215FF081FA1E25174B09A866
:10532000196000226421059404940294019400946D
:10533000002303955AF01AFA114B6A461B6806952A
:105340000793AF235B0005930DAB13CB13C203CBC5
:1053500003C209980A990B9A0C9B5AF019FAC6E7EE
:105360009AA2002098A0002080A100209CA00020EC
:1053700084A10020A0A00020ACA1002094A00020C7
:105380009C130020F8B52F4C01212368A0689C468F
:105390001D00E668A8420BD000232F680A009A403F
:1053A000174239D00133202BF8D10435A842F3D16C
:1053B00000239E4209D00A009A402F6817422BD042
:1053C0000133202BF1D09E42F5D1AC452DD0634660
:1053D00000216046EA1A61F0FBFA002E1DD16AF046
:1053E00021FFA3682268184D991AE368C9009C46FA
:1053F00061445FF03BFA154E29606AF013FFA36821
:105400002268991AE368C9009C4661445FF02EFA4D
:105410002B6831609942F0D0F8BD20239E1B213BC0
:10542000F3402A689A432A60D9E7002ED7D0202378
:1054300062469E1B213BF34012689A43130062466A
:105440001360CCE744A00020A8A10020A4A1002064
:105450001A4A10B513680C00002B2BDC0122184BE4
:1054600018491A70184BFE321A700B68174A002B35
:105470001CD1136882204000834202DD00230B60B0
:105480001360FFF71DFFFFF77DFFFFF733FA2000E2
:10549000FFF7B8FB0E4B1B68002B06DBFFF704FB86
:1054A000FFF770FE2000FFF72FFD10BD13680133DA
:1054B0001360DFE7013B1360F7E7C046C0A100209F
:1054C0009CA200209CA1002034130020A0A1002059
:1054D00004A10020F0B5DE464E4657464546E0B5ED
:1054E000D34B97B099461B689B46002B32DBD14BC0
:1054F00000259A46D04FD14CD14E09972378984633
:10550000002B1FD153463068196860F040FE400000
:10551000CC49400860F08CFE002813D0CA4B1968B3
:10552000099B186860F033FE4000C649400860F0EF
:105530007FFE002806D0C54BC549186860F078FE8C
:1055400000280ED1099B0135043301340993043638
:105550005D45D3DD17B0F0BCBB46B246A946A046B8
:10556000F0BD0023B94A1360BA4A136001232370C7
:10557000B24B1B78002B40D05B46002B00DC3EE199
:10558000AE4B5B78002B38D05B46012B0AD0AB4B7F
:105590009B78002B31D05B46022B03D0A74BDB78E6
:1055A000002B2AD05B460021A4485A1C61F010FA57
:1055B000A94B1A680B9301321A600A925A46A74BFC
:1055C0001A600022A64B1A70A64B1A6859688A42C4
:1055D00000D05A605B46DB435A46DB171340013369
:1055E0009B001F001A000021954861F0F1F93A0074
:1055F0000021914861F0ECF903E0974B0B931B6895
:105600000A930A9B092B2ED01E2200239046642168
:105610000DA8059304930392029300220193009333
:105620005AF0A4F8904B6A461B680135079343462D
:1056300006934133FF33059311AB83CB83C203CB76
:1056400003C2109B0D980E990F9A5AF0A1F84B4681
:105650001B6801349B46099B0436043309935D455E
:1056600000DC4BE776E70122804B1A7000220B9B8F
:105670001A607F4B1B6818007E4B5F681968BC4638
:105680009F686144BC46DF686144BC461F69614451
:10569000BC465F696144BC469F696144BC46DF69A2
:1056A0006144BC461F6A6144BC4661441A605A604A
:1056B0009A60DA601A615A619A61DA611A62884204
:1056C00000DCA0E05A46002A00DC94E0012290466B
:1056D00000275A6A38005F629F6A9862BC46DF6A98
:1056E0006244BC461F6B6244BC465F6B6244BC466E
:1056F0009F6B6244BC46DF6B6244BC461F6C6244D5
:10570000BC465F6C6244BC466244D862186358630E
:105710009863D863186458648A427ADB5A46012A2F
:1057200065D000279A6C38009F64DF6CD864BC4653
:105730001F6D6244BC465F6D6244BC469F6D62440F
:10574000BC46DF6D6244BC461F6E6244BC465F6E61
:105750006244BC469F6E6244BC466244186558650C
:105760009865D8651866586698668A4258DB5A4626
:10577000022A3CD00027BC46DA6EDF661F6FBB46AC
:1057800067461F675F6F5A44BB4667465F679F6FF8
:105790005A44BB4667469F67DF6F5A44BB4667461D
:1057A000DF6780373800DF595A44BB465A440A92B3
:1057B00062461A50843210009A5893460A9A5A4404
:1057C0000A9262461A50883210009A5893460A9AF2
:1057D0005A440A9262461A508C3210009A580700B6
:1057E000934660460A9AD8515A448A4204DB43469B
:1057F000002B00D108E70A001D4B1A6004E7002BBC
:1058000000D0D5E6CEE65A46002A00DCFCE60100D0
:105810005EE759460129EFD011000122904680E74A
:1058200059460229E8D0110001229046A2E7C0465D
:1058300074A10020E0A00020B49B0020E8A000207C
:10584000A49B002000004040E4A00020B49F002062
:105850000000704298A10020DCA0002078A1002068
:105860008DA2002074A000209C130020A013002013
:10587000D8A00020C4A100201023F0B5C646070020
:10588000984606000400042500B5804484B0203703
:10589000303610220021684661F09AF86368002BC8
:1058A00003D004B080BCB846F0BDA368002BF8D18B
:1058B0002368E2681343F4D110224146200061F0CE
:1058C0008DF810223900404661F088F8102231002E
:1058D000380061F083F8013D10226946300061F024
:1058E0007DF8002DD5D1DCE7026B03680260C26B46
:1058F0000263C268C360C263026A43684260826B2B
:105900000262C269C3618263026983688260426B1A
:105910000261C26AC3624263426A43694261826A47
:1059200042628269836182627047C046C2680368CE
:105930000260C26BC260026B0363C263C2694368E8
:105940004260826BC261026A03628263C26A8368D8
:105950008260426BC2620269036142638269436989
:105960004261826A8261426A436282627047C046D3
:10597000F0B5012257464E464546DE468F4BE0B510
:105980001A708F4B8DB01A6A1E6894461A6B1F6985
:1059900091468C4A11685A68080090465A690A3044
:1059A00001925A6ACD1C02925A6B03929A68049231
:1059B0009A6905929A6A06929A6B0792DA68089237
:1059C000DA690992DA6A0A92DB6B7F4C0B937F4BA0
:1059D000A3469A461B688C1C9A00D2185200801865
:1059E00001310A32AD18A4188A1800218000AD00D8
:1059F000A400920058445D445C445A448B4661467E
:105A000000910168002902D0002E00D0C1E0816A17
:105A1000002902D0002F00D0BBE0016D002903D087
:105A20000099002900D0B4E0816F002903D04946D5
:105A3000002900D0ADE01168002903D041460029BB
:105A400000D0A6E0916A002903D00199002900D076
:105A50009FE0116D002903D00299002900D098E041
:105A6000916F002903D00399002900D091E02168AB
:105A7000002903D00499002900D08AE0A16A0029F6
:105A800003D00599002900D083E0216D002902D0C0
:105A9000069900297DD1A16F002902D0079900291C
:105AA00077D12968002902D00899002971D1A96A03
:105AB000002902D0099900296BD1296D002902D053
:105AC0000A99002965D1A96F002902D00B990029F4
:105AD0005FD1002E01D0162B5BDC002F02D0591CA9
